{
  "_format": "hh-sol-artifact-1",
  "contractName": "Ballot",
  "sourceName": "contracts/Ballot.sol",
  "abi": [
    {
      "inputs": [
        {
          "internalType": "string",
          "name": "_subject",
          "type": "string"
        },
        {
          "internalType": "uint256",
          "name": "_token",
          "type": "uint256"
        },
        {
          "internalType": "string",
          "name": "_name",
          "type": "string"
        }
      ],
      "stateMutability": "nonpayable",
      "type": "constructor"
    },
    {
      "inputs": [],
      "name": "getAddrName",
      "outputs": [
        {
          "internalType": "uint256",
          "name": "",
          "type": "uint256"
        },
        {
          "internalType": "uint256",
          "name": "",
          "type": "uint256"
        }
      ],
      "stateMutability": "view",
      "type": "function"
    },
    {
      "inputs": [
        {
          "internalType": "uint256",
          "name": "_num",
          "type": "uint256"
        }
      ],
      "name": "getPoll",
      "outputs": [
        {
          "internalType": "uint256",
          "name": "",
          "type": "uint256"
        },
        {
          "internalType": "string",
          "name": "",
          "type": "string"
        },
        {
          "internalType": "uint256",
          "name": "",
          "type": "uint256"
        }
      ],
      "stateMutability": "view",
      "type": "function"
    },
    {
      "inputs": [
        {
          "internalType": "uint256",
          "name": "_num",
          "type": "uint256"
        }
      ],
      "name": "getTeam",
      "outputs": [
        {
          "components": [
            {
              "internalType": "string",
              "name": "subjectName",
              "type": "string"
            },
            {
              "internalType": "uint256",
              "name": "teamNumber",
              "type": "uint256"
            },
            {
              "internalType": "string",
              "name": "teamName",
              "type": "string"
            },
            {
              "internalType": "address[]",
              "name": "addr",
              "type": "address[]"
            },
            {
              "internalType": "uint256",
              "name": "eventNum",
              "type": "uint256"
            },
            {
              "internalType": "uint256",
              "name": "tokens",
              "type": "uint256"
            }
          ],
          "internalType": "struct Team.team",
          "name": "",
          "type": "tuple"
        }
      ],
      "stateMutability": "view",
      "type": "function"
    },
    {
      "inputs": [],
      "name": "getTotal",
      "outputs": [
        {
          "internalType": "uint256",
          "name": "",
          "type": "uint256"
        }
      ],
      "stateMutability": "view",
      "type": "function"
    },
    {
      "inputs": [
        {
          "internalType": "address",
          "name": "_addr",
          "type": "address"
        }
      ],
      "name": "getUser",
      "outputs": [
        {
          "components": [
            {
              "internalType": "string",
              "name": "name",
              "type": "string"
            },
            {
              "internalType": "address",
              "name": "addr",
              "type": "address"
            },
            {
              "internalType": "uint256",
              "name": "token",
              "type": "uint256"
            }
          ],
          "internalType": "struct Team.user",
          "name": "",
          "type": "tuple"
        }
      ],
      "stateMutability": "view",
      "type": "function"
    },
    {
      "inputs": [],
      "name": "getUserToken",
      "outputs": [
        {
          "internalType": "uint256",
          "name": "",
          "type": "uint256"
        }
      ],
      "stateMutability": "view",
      "type": "function"
    },
    {
      "inputs": [
        {
          "internalType": "address",
          "name": "_addr",
          "type": "address"
        }
      ],
      "name": "getVote",
      "outputs": [
        {
          "internalType": "uint256",
          "name": "",
          "type": "uint256"
        }
      ],
      "stateMutability": "view",
      "type": "function"
    },
    {
      "inputs": [],
      "name": "ranking",
      "outputs": [
        {
          "internalType": "address",
          "name": "",
          "type": "address"
        },
        {
          "internalType": "address",
          "name": "",
          "type": "address"
        },
        {
          "internalType": "address",
          "name": "",
          "type": "address"
        },
        {
          "internalType": "address",
          "name": "",
          "type": "address"
        },
        {
          "internalType": "address",
          "name": "",
          "type": "address"
        }
      ],
      "stateMutability": "nonpayable",
      "type": "function"
    },
    {
      "inputs": [
        {
          "internalType": "address",
          "name": "_addr",
          "type": "address"
        },
        {
          "internalType": "string",
          "name": "_name",
          "type": "string"
        }
      ],
      "name": "setAddrName",
      "outputs": [],
      "stateMutability": "nonpayable",
      "type": "function"
    },
    {
      "inputs": [
        {
          "internalType": "string",
          "name": "_title",
          "type": "string"
        }
      ],
      "name": "setPoll",
      "outputs": [],
      "stateMutability": "nonpayable",
      "type": "function"
    },
    {
      "inputs": [
        {
          "internalType": "string",
          "name": "_teamName",
          "type": "string"
        }
      ],
      "name": "setTeam",
      "outputs": [],
      "stateMutability": "nonpayable",
      "type": "function"
    },
    {
      "inputs": [
        {
          "internalType": "uint256",
          "name": "_num",
          "type": "uint256"
        },
        {
          "internalType": "uint256",
          "name": "_tpe",
          "type": "uint256"
        }
      ],
      "name": "setToken",
      "outputs": [],
      "stateMutability": "nonpayable",
      "type": "function"
    },
    {
      "inputs": [],
      "name": "setUser",
      "outputs": [],
      "stateMutability": "nonpayable",
      "type": "function"
    },
    {
      "inputs": [
        {
          "internalType": "uint256",
          "name": "_token",
          "type": "uint256"
        },
        {
          "internalType": "address",
          "name": "_addr",
          "type": "address"
        }
      ],
      "name": "vote",
      "outputs": [
        {
          "internalType": "uint256",
          "name": "",
          "type": "uint256"
        }
      ],
      "stateMutability": "nonpayable",
      "type": "function"
    },
    {
      "inputs": [],
      "name": "what",
      "outputs": [
        {
          "internalType": "address",
          "name": "",
          "type": "address"
        },
        {
          "internalType": "address",
          "name": "",
          "type": "address"
        },
        {
          "internalType": "address",
          "name": "",
          "type": "address"
        },
        {
          "internalType": "address",
          "name": "",
          "type": "address"
        },
        {
          "internalType": "address",
          "name": "",
          "type": "address"
        }
      ],
      "stateMutability": "view",
      "type": "function"
    }
  ],
  "bytecode": "0x60806040523480156200001157600080fd5b50604051620043d5380380620043d583398181016040528101906200003791906200049b565b82828282600290816200004b919062000776565b5060048190806001815401808255809150506001900390600052602060002001600090919091909150908162000082919062000776565b506003339080600181540180825580915050600190039060005260206000200160009091909190916101000a81548173ffffffffffffffffffffffffffffffffffffffff021916908373ffffffffffffffffffffffffffffffffffffffff16021790555081604051620000f590620002bf565b6200010191906200086e565b604051809103906000f0801580156200011e573d6000803e3d6000fd5b50600660006101000a81548173ffffffffffffffffffffffffffffffffffffffff021916908373ffffffffffffffffffffffffffffffffffffffff160217905550505050816040516200017190620002bf565b6200017d91906200086e565b604051809103906000f0801580156200019a573d6000803e3d6000fd5b50600660006101000a81548173ffffffffffffffffffffffffffffffffffffffff021916908373ffffffffffffffffffffffffffffffffffffffff160217905550600660009054906101000a900473ffffffffffffffffffffffffffffffffffffffff1673ffffffffffffffffffffffffffffffffffffffff1663c4e41b226040518163ffffffff1660e01b8152600401602060405180830381865afa15801562000249573d6000803e3d6000fd5b505050506040513d601f19601f820116820180604052508101906200026f91906200088b565b60098190555033600a60006101000a81548173ffffffffffffffffffffffffffffffffffffffff021916908373ffffffffffffffffffffffffffffffffffffffff160217905550505050620008bd565b6119b48062002a2183390190565b6000604051905090565b600080fd5b600080fd5b600080fd5b600080fd5b6000601f19601f8301169050919050565b7f4e487b7100000000000000000000000000000000000000000000000000000000600052604160045260246000fd5b6200033682620002eb565b810181811067ffffffffffffffff82111715620003585762000357620002fc565b5b80604052505050565b60006200036d620002cd565b90506200037b82826200032b565b919050565b600067ffffffffffffffff8211156200039e576200039d620002fc565b5b620003a982620002eb565b9050602081019050919050565b60005b83811015620003d6578082015181840152602081019050620003b9565b60008484015250505050565b6000620003f9620003f38462000380565b62000361565b905082815260208101848484011115620004185762000417620002e6565b5b62000425848285620003b6565b509392505050565b600082601f830112620004455762000444620002e1565b5b815162000457848260208601620003e2565b91505092915050565b6000819050919050565b620004758162000460565b81146200048157600080fd5b50565b60008151905062000495816200046a565b92915050565b600080600060608486031215620004b757620004b6620002d7565b5b600084015167ffffffffffffffff811115620004d857620004d7620002dc565b5b620004e6868287016200042d565b9350506020620004f98682870162000484565b925050604084015167ffffffffffffffff8111156200051d576200051c620002dc565b5b6200052b868287016200042d565b9150509250925092565b600081519050919050565b7f4e487b7100000000000000000000000000000000000000000000000000000000600052602260045260246000fd5b600060028204905060018216806200058857607f821691505b6020821081036200059e576200059d62000540565b5b50919050565b60008190508160005260206000209050919050565b60006020601f8301049050919050565b600082821b905092915050565b600060088302620006087fffffffffffffffffffffffffffffffffffffffffffffffffffffffffffffffff82620005c9565b620006148683620005c9565b95508019841693508086168417925050509392505050565b6000819050919050565b600062000657620006516200064b8462000460565b6200062c565b62000460565b9050919050565b6000819050919050565b620006738362000636565b6200068b62000682826200065e565b848454620005d6565b825550505050565b600090565b620006a262000693565b620006af81848462000668565b505050565b5b81811015620006d757620006cb60008262000698565b600181019050620006b5565b5050565b601f8211156200072657620006f081620005a4565b620006fb84620005b9565b810160208510156200070b578190505b620007236200071a85620005b9565b830182620006b4565b50505b505050565b600082821c905092915050565b60006200074b600019846008026200072b565b1980831691505092915050565b600062000766838362000738565b9150826002028217905092915050565b620007818262000535565b67ffffffffffffffff8111156200079d576200079c620002fc565b5b620007a982546200056f565b620007b6828285620006db565b600060209050601f831160018114620007ee5760008415620007d9578287015190505b620007e5858262000758565b86555062000855565b601f198416620007fe86620005a4565b60005b82811015620008285784890151825560018201915060208501945060208101905062000801565b8683101562000848578489015162000844601f89168262000738565b8355505b6001600288020188555050505b505050505050565b620008688162000460565b82525050565b60006020820190506200088560008301846200085d565b92915050565b600060208284031215620008a457620008a3620002d7565b5b6000620008b48482850162000484565b91505092915050565b61215480620008cd6000396000f3fe608060405234801561001057600080fd5b50600436106100f35760003560e01c8063775a25e31161009757806393d89e391161006657806393d89e3914610288578063b24bb845146102a4578063cee4db00146102c6578063e546b9a3146102e5576100f3565b8063775a25e3146101fc5780638735741d1461021a5780638d337b811461023657806392105b6e14610266576100f3565b80630fa33d13116100d35780630fa33d13146101745780631a8cbcaa1461017e5780635aed66dd146101b05780636f77926b146101cc576100f3565b80624bd148146100f85780628e0f1b1461011457806302d947ef14610144575b600080fd5b610112600480360381019061010d9190611729565b610303565b005b61012e600480360381019061012991906117a8565b610398565b60405161013b91906119ea565b60405180910390f35b61015e60048036038101906101599190611a38565b610594565b60405161016b9190611a87565b60405180910390f35b61017c610690565b005b610198600480360381019061019391906117a8565b6108b3565b6040516101a793929190611aec565b60405180910390f35b6101ca60048036038101906101c59190611b2a565b610996565b005b6101e660048036038101906101e19190611b6a565b6109c9565b6040516101f39190611be7565b60405180910390f35b610204610b14565b6040516102119190611a87565b60405180910390f35b610234600480360381019061022f9190611729565b610bac565b005b610250600480360381019061024b9190611b6a565b610e2d565b60405161025d9190611a87565b60405180910390f35b61026e610e76565b60405161027f959493929190611c18565b60405180910390f35b6102a2600480360381019061029d9190611c6b565b611266565b005b6102ac611302565b6040516102bd959493929190611c18565b60405180910390f35b6102ce61145a565b6040516102dc929190611cc7565b60405180910390f35b6102ed611471565b6040516102fa9190611a87565b60405180910390f35b6040518060600160405280600160075461031d9190611d1f565b815260200182815260200160008152506008600060016007546103409190611d1f565b815260200190815260200160002060008201518160000155602082015181600101908161036d9190611f5f565b506040820151816002015590505060016007600082825461038e9190611d1f565b9250508190555050565b6103a06114bb565b6000808381526020019081526020016000206040518060c00160405290816000820180546103cd90611d82565b80601f01602080910402602001604051908101604052809291908181526020018280546103f990611d82565b80156104465780601f1061041b57610100808354040283529160200191610446565b820191906000526020600020905b81548152906001019060200180831161042957829003601f168201915b505050505081526020016001820154815260200160028201805461046990611d82565b80601f016020809104026020016040519081016040528092919081815260200182805461049590611d82565b80156104e25780601f106104b7576101008083540402835291602001916104e2565b820191906000526020600020905b8154815290600101906020018083116104c557829003601f168201915b505050505081526020016003820180548060200260200160405190810160405280929190818152602001828054801561057057602002820191906000526020600020905b8160009054906101000a900473ffffffffffffffffffffffffffffffffffffffff1673ffffffffffffffffffffffffffffffffffffffff1681526020019060010190808311610526575b50505050508152602001600482015481526020016005820154815250509050919050565b600082600b60008473ffffffffffffffffffffffffffffffffffffffff1673ffffffffffffffffffffffffffffffffffffffff16815260200190815260200160002060008282546105e59190611d1f565b9250508190555082600560003373ffffffffffffffffffffffffffffffffffffffff1673ffffffffffffffffffffffffffffffffffffffff168152602001908152602001600020600201600082825461063e9190612031565b92505081905550600560003373ffffffffffffffffffffffffffffffffffffffff1673ffffffffffffffffffffffffffffffffffffffff16815260200190815260200160002060020154905092915050565b60005b6003805490508110156108b0576040518060600160405280600483815481106106bf576106be612065565b5b9060005260206000200180546106d490611d82565b80601f016020809104026020016040519081016040528092919081815260200182805461070090611d82565b801561074d5780601f106107225761010080835404028352916020019161074d565b820191906000526020600020905b81548152906001019060200180831161073057829003601f168201915b505050505081526020016003838154811061076b5761076a612065565b5b9060005260206000200160009054906101000a900473ffffffffffffffffffffffffffffffffffffffff1673ffffffffffffffffffffffffffffffffffffffff168152602001600a81525060056000600384815481106107ce576107cd612065565b5b9060005260206000200160009054906101000a900473ffffffffffffffffffffffffffffffffffffffff1673ffffffffffffffffffffffffffffffffffffffff1673ffffffffffffffffffffffffffffffffffffffff16815260200190815260200160002060008201518160000190816108489190611f5f565b5060208201518160010160006101000a81548173ffffffffffffffffffffffffffffffffffffffff021916908373ffffffffffffffffffffffffffffffffffffffff1602179055506040820151816002015590505080806108a890612094565b915050610693565b50565b600060606000600860008581526020019081526020016000206000015460086000868152602001908152602001600020600101600860008781526020019081526020016000206002015481805461090990611d82565b80601f016020809104026020016040519081016040528092919081815260200182805461093590611d82565b80156109825780601f1061095757610100808354040283529160200191610982565b820191906000526020600020905b81548152906001019060200180831161096557829003601f168201915b505050505091509250925092509193909250565b806008600084815260200190815260200160002060020181905550806009546109bf9190612031565b6009819055505050565b6109d16114f1565b600560008373ffffffffffffffffffffffffffffffffffffffff1673ffffffffffffffffffffffffffffffffffffffff168152602001908152602001600020604051806060016040529081600082018054610a2b90611d82565b80601f0160208091040260200160405190810160405280929190818152602001828054610a5790611d82565b8015610aa45780601f10610a7957610100808354040283529160200191610aa4565b820191906000526020600020905b815481529060010190602001808311610a8757829003601f168201915b505050505081526020016001820160009054906101000a900473ffffffffffffffffffffffffffffffffffffffff1673ffffffffffffffffffffffffffffffffffffffff1673ffffffffffffffffffffffffffffffffffffffff1681526020016002820154815250509050919050565b6000600660009054906101000a900473ffffffffffffffffffffffffffffffffffffffff1673ffffffffffffffffffffffffffffffffffffffff1663c4e41b226040518163ffffffff1660e01b8152600401602060405180830381865afa158015610b83573d6000803e3d6000fd5b505050506040513d601f19601f82011682018060405250810190610ba791906120f1565b905090565b6040518060c0016040528060028054610bc490611d82565b80601f0160208091040260200160405190810160405280929190818152602001828054610bf090611d82565b8015610c3d5780601f10610c1257610100808354040283529160200191610c3d565b820191906000526020600020905b815481529060010190602001808311610c2057829003601f168201915b5050505050815260200160018054610c559190611d1f565b81526020018281526020016003805480602002602001604051908101604052809291908181526020018280548015610ce257602002820191906000526020600020905b8160009054906101000a900473ffffffffffffffffffffffffffffffffffffffff1673ffffffffffffffffffffffffffffffffffffffff1681526020019060010190808311610c98575b505050505081526020016007548152602001600660009054906101000a900473ffffffffffffffffffffffffffffffffffffffff1673ffffffffffffffffffffffffffffffffffffffff1663c4e41b226040518163ffffffff1660e01b8152600401602060405180830381865afa158015610d61573d6000803e3d6000fd5b505050506040513d601f19601f82011682018060405250810190610d8591906120f1565b81525060008060018054610d999190611d1f565b81526020019081526020016000206000820151816000019081610dbc9190611f5f565b50602082015181600101556040820151816002019081610ddc9190611f5f565b506060820151816003019080519060200190610df9929190611528565b506080820151816004015560a082015181600501559050506001806000828254610e239190611d1f565b9250508190555050565b6000600b60008373ffffffffffffffffffffffffffffffffffffffff1673ffffffffffffffffffffffffffffffffffffffff168152602001908152602001600020549050919050565b6000806000806000805b6001600380549050610e929190612031565b811015611115576000600190505b60038054905081101561110157600b600060038381548110610ec557610ec4612065565b5b9060005260206000200160009054906101000a900473ffffffffffffffffffffffffffffffffffffffff1673ffffffffffffffffffffffffffffffffffffffff1673ffffffffffffffffffffffffffffffffffffffff16815260200190815260200160002054600b600060038581548110610f4357610f42612065565b5b9060005260206000200160009054906101000a900473ffffffffffffffffffffffffffffffffffffffff1673ffffffffffffffffffffffffffffffffffffffff1673ffffffffffffffffffffffffffffffffffffffff1681526020019081526020016000205410156110ee5760038181548110610fc357610fc2612065565b5b9060005260206000200160009054906101000a900473ffffffffffffffffffffffffffffffffffffffff166003838154811061100257611001612065565b5b9060005260206000200160009054906101000a900473ffffffffffffffffffffffffffffffffffffffff166003848154811061104157611040612065565b5b9060005260206000200160006003858154811061106157611060612065565b5b9060005260206000200160008491906101000a81548173ffffffffffffffffffffffffffffffffffffffff021916908373ffffffffffffffffffffffffffffffffffffffff1602179055508391906101000a81548173ffffffffffffffffffffffffffffffffffffffff021916908373ffffffffffffffffffffffffffffffffffffffff16021790555050505b80806110f990612094565b915050610ea0565b50808061110d90612094565b915050610e80565b50600360008154811061112b5761112a612065565b5b9060005260206000200160009054906101000a900473ffffffffffffffffffffffffffffffffffffffff16600360018154811061116b5761116a612065565b5b9060005260206000200160009054906101000a900473ffffffffffffffffffffffffffffffffffffffff1660036002815481106111ab576111aa612065565b5b9060005260206000200160009054906101000a900473ffffffffffffffffffffffffffffffffffffffff16600380815481106111ea576111e9612065565b5b9060005260206000200160009054906101000a900473ffffffffffffffffffffffffffffffffffffffff16600360048154811061122a57611229612065565b5b9060005260206000200160009054906101000a900473ffffffffffffffffffffffffffffffffffffffff16945094509450945094509091929394565b6003829080600181540180825580915050600190039060005260206000200160009091909190916101000a81548173ffffffffffffffffffffffffffffffffffffffff021916908373ffffffffffffffffffffffffffffffffffffffff1602179055506004819080600181540180825580915050600190039060005260206000200160009091909190915090816112fd9190611f5f565b505050565b6000806000806000600360008154811061131f5761131e612065565b5b9060005260206000200160009054906101000a900473ffffffffffffffffffffffffffffffffffffffff16600360018154811061135f5761135e612065565b5b9060005260206000200160009054906101000a900473ffffffffffffffffffffffffffffffffffffffff16600360028154811061139f5761139e612065565b5b9060005260206000200160009054906101000a900473ffffffffffffffffffffffffffffffffffffffff16600380815481106113de576113dd612065565b5b9060005260206000200160009054906101000a900473ffffffffffffffffffffffffffffffffffffffff16600360048154811061141e5761141d612065565b5b9060005260206000200160009054906101000a900473ffffffffffffffffffffffffffffffffffffffff16945094509450945094509091929394565b600080600380549050600480549050915091509091565b6000600560003373ffffffffffffffffffffffffffffffffffffffff1673ffffffffffffffffffffffffffffffffffffffff16815260200190815260200160002060020154905090565b6040518060c001604052806060815260200160008152602001606081526020016060815260200160008152602001600081525090565b604051806060016040528060608152602001600073ffffffffffffffffffffffffffffffffffffffff168152602001600081525090565b8280548282559060005260206000209081019282156115a1579160200282015b828111156115a05782518260006101000a81548173ffffffffffffffffffffffffffffffffffffffff021916908373ffffffffffffffffffffffffffffffffffffffff16021790555091602001919060010190611548565b5b5090506115ae91906115b2565b5090565b5b808211156115cb5760008160009055506001016115b3565b5090565b6000604051905090565b600080fd5b600080fd5b600080fd5b600080fd5b6000601f19601f8301169050919050565b7f4e487b7100000000000000000000000000000000000000000000000000000000600052604160045260246000fd5b611636826115ed565b810181811067ffffffffffffffff82111715611655576116546115fe565b5b80604052505050565b60006116686115cf565b9050611674828261162d565b919050565b600067ffffffffffffffff821115611694576116936115fe565b5b61169d826115ed565b9050602081019050919050565b82818337600083830152505050565b60006116cc6116c784611679565b61165e565b9050828152602081018484840111156116e8576116e76115e8565b5b6116f38482856116aa565b509392505050565b600082601f8301126117105761170f6115e3565b5b81356117208482602086016116b9565b91505092915050565b60006020828403121561173f5761173e6115d9565b5b600082013567ffffffffffffffff81111561175d5761175c6115de565b5b611769848285016116fb565b91505092915050565b6000819050919050565b61178581611772565b811461179057600080fd5b50565b6000813590506117a28161177c565b92915050565b6000602082840312156117be576117bd6115d9565b5b60006117cc84828501611793565b91505092915050565b600081519050919050565b600082825260208201905092915050565b60005b8381101561180f5780820151818401526020810190506117f4565b60008484015250505050565b6000611826826117d5565b61183081856117e0565b93506118408185602086016117f1565b611849816115ed565b840191505092915050565b61185d81611772565b82525050565b600081519050919050565b600082825260208201905092915050565b6000819050602082019050919050565b600073ffffffffffffffffffffffffffffffffffffffff82169050919050565b60006118ba8261188f565b9050919050565b6118ca816118af565b82525050565b60006118dc83836118c1565b60208301905092915050565b6000602082019050919050565b600061190082611863565b61190a818561186e565b93506119158361187f565b8060005b8381101561194657815161192d88826118d0565b9750611938836118e8565b925050600181019050611919565b5085935050505092915050565b600060c0830160008301518482036000860152611970828261181b565b91505060208301516119856020860182611854565b506040830151848203604086015261199d828261181b565b915050606083015184820360608601526119b782826118f5565b91505060808301516119cc6080860182611854565b5060a08301516119df60a0860182611854565b508091505092915050565b60006020820190508181036000830152611a048184611953565b905092915050565b611a15816118af565b8114611a2057600080fd5b50565b600081359050611a3281611a0c565b92915050565b60008060408385031215611a4f57611a4e6115d9565b5b6000611a5d85828601611793565b9250506020611a6e85828601611a23565b9150509250929050565b611a8181611772565b82525050565b6000602082019050611a9c6000830184611a78565b92915050565b600082825260208201905092915050565b6000611abe826117d5565b611ac88185611aa2565b9350611ad88185602086016117f1565b611ae1816115ed565b840191505092915050565b6000606082019050611b016000830186611a78565b8181036020830152611b138185611ab3565b9050611b226040830184611a78565b949350505050565b60008060408385031215611b4157611b406115d9565b5b6000611b4f85828601611793565b9250506020611b6085828601611793565b9150509250929050565b600060208284031215611b8057611b7f6115d9565b5b6000611b8e84828501611a23565b91505092915050565b60006060830160008301518482036000860152611bb4828261181b565b9150506020830151611bc960208601826118c1565b506040830151611bdc6040860182611854565b508091505092915050565b60006020820190508181036000830152611c018184611b97565b905092915050565b611c12816118af565b82525050565b600060a082019050611c2d6000830188611c09565b611c3a6020830187611c09565b611c476040830186611c09565b611c546060830185611c09565b611c616080830184611c09565b9695505050505050565b60008060408385031215611c8257611c816115d9565b5b6000611c9085828601611a23565b925050602083013567ffffffffffffffff811115611cb157611cb06115de565b5b611cbd858286016116fb565b9150509250929050565b6000604082019050611cdc6000830185611a78565b611ce96020830184611a78565b9392505050565b7f4e487b7100000000000000000000000000000000000000000000000000000000600052601160045260246000fd5b6000611d2a82611772565b9150611d3583611772565b9250828201905080821115611d4d57611d4c611cf0565b5b92915050565b7f4e487b7100000000000000000000000000000000000000000000000000000000600052602260045260246000fd5b60006002820490506001821680611d9a57607f821691505b602082108103611dad57611dac611d53565b5b50919050565b60008190508160005260206000209050919050565b60006020601f8301049050919050565b600082821b905092915050565b600060088302611e157fffffffffffffffffffffffffffffffffffffffffffffffffffffffffffffffff82611dd8565b611e1f8683611dd8565b95508019841693508086168417925050509392505050565b6000819050919050565b6000611e5c611e57611e5284611772565b611e37565b611772565b9050919050565b6000819050919050565b611e7683611e41565b611e8a611e8282611e63565b848454611de5565b825550505050565b600090565b611e9f611e92565b611eaa818484611e6d565b505050565b5b81811015611ece57611ec3600082611e97565b600181019050611eb0565b5050565b601f821115611f1357611ee481611db3565b611eed84611dc8565b81016020851015611efc578190505b611f10611f0885611dc8565b830182611eaf565b50505b505050565b600082821c905092915050565b6000611f3660001984600802611f18565b1980831691505092915050565b6000611f4f8383611f25565b9150826002028217905092915050565b611f68826117d5565b67ffffffffffffffff811115611f8157611f806115fe565b5b611f8b8254611d82565b611f96828285611ed2565b600060209050601f831160018114611fc95760008415611fb7578287015190505b611fc18582611f43565b865550612029565b601f198416611fd786611db3565b60005b82811015611fff57848901518255600182019150602085019450602081019050611fda565b8683101561201c5784890151612018601f891682611f25565b8355505b6001600288020188555050505b505050505050565b600061203c82611772565b915061204783611772565b925082820390508181111561205f5761205e611cf0565b5b92915050565b7f4e487b7100000000000000000000000000000000000000000000000000000000600052603260045260246000fd5b600061209f82611772565b91507fffffffffffffffffffffffffffffffffffffffffffffffffffffffffffffffff82036120d1576120d0611cf0565b5b600182019050919050565b6000815190506120eb8161177c565b92915050565b600060208284031215612107576121066115d9565b5b6000612115848285016120dc565b9150509291505056fea2646970667358221220a43966c0d468073f954c42b19b4fe2e027b25c71023ecce0a0fd434385df9a0064736f6c6343000811003360806040523480156200001157600080fd5b50604051620019b4380380620019b4833981810160405281019062000037919062000299565b6040518060400160405280600781526020017f54494745454d41000000000000000000000000000000000000000000000000008152506040518060400160405280600381526020017f54474d00000000000000000000000000000000000000000000000000000000008152508160039081620000b491906200053b565b508060049081620000c691906200053b565b505050620000db3382620000e260201b60201c565b506200073d565b600073ffffffffffffffffffffffffffffffffffffffff168273ffffffffffffffffffffffffffffffffffffffff160362000154576040517f08c379a00000000000000000000000000000000000000000000000000000000081526004016200014b9062000683565b60405180910390fd5b62000168600083836200024f60201b60201c565b80600260008282546200017c9190620006d4565b92505081905550806000808473ffffffffffffffffffffffffffffffffffffffff1673ffffffffffffffffffffffffffffffffffffffff168152602001908152602001600020600082825401925050819055508173ffffffffffffffffffffffffffffffffffffffff16600073ffffffffffffffffffffffffffffffffffffffff167fddf252ad1be2c89b69c2b068fc378daa952ba7f163c4a11628f55a4df523b3ef836040516200022f919062000720565b60405180910390a36200024b600083836200025460201b60201c565b5050565b505050565b505050565b600080fd5b6000819050919050565b62000273816200025e565b81146200027f57600080fd5b50565b600081519050620002938162000268565b92915050565b600060208284031215620002b257620002b162000259565b5b6000620002c28482850162000282565b91505092915050565b600081519050919050565b7f4e487b7100000000000000000000000000000000000000000000000000000000600052604160045260246000fd5b7f4e487b7100000000000000000000000000000000000000000000000000000000600052602260045260246000fd5b600060028204905060018216806200034d57607f821691505b60208210810362000363576200036262000305565b5b50919050565b60008190508160005260206000209050919050565b60006020601f8301049050919050565b600082821b905092915050565b600060088302620003cd7fffffffffffffffffffffffffffffffffffffffffffffffffffffffffffffffff826200038e565b620003d986836200038e565b95508019841693508086168417925050509392505050565b6000819050919050565b60006200041c6200041662000410846200025e565b620003f1565b6200025e565b9050919050565b6000819050919050565b6200043883620003fb565b62000450620004478262000423565b8484546200039b565b825550505050565b600090565b6200046762000458565b620004748184846200042d565b505050565b5b818110156200049c57620004906000826200045d565b6001810190506200047a565b5050565b601f821115620004eb57620004b58162000369565b620004c0846200037e565b81016020851015620004d0578190505b620004e8620004df856200037e565b83018262000479565b50505b505050565b600082821c905092915050565b60006200051060001984600802620004f0565b1980831691505092915050565b60006200052b8383620004fd565b9150826002028217905092915050565b6200054682620002cb565b67ffffffffffffffff811115620005625762000561620002d6565b5b6200056e825462000334565b6200057b828285620004a0565b600060209050601f831160018114620005b357600084156200059e578287015190505b620005aa85826200051d565b8655506200061a565b601f198416620005c38662000369565b60005b82811015620005ed57848901518255600182019150602085019450602081019050620005c6565b868310156200060d578489015162000609601f891682620004fd565b8355505b6001600288020188555050505b505050505050565b600082825260208201905092915050565b7f45524332303a206d696e7420746f20746865207a65726f206164647265737300600082015250565b60006200066b601f8362000622565b9150620006788262000633565b602082019050919050565b600060208201905081810360008301526200069e816200065c565b9050919050565b7f4e487b7100000000000000000000000000000000000000000000000000000000600052601160045260246000fd5b6000620006e1826200025e565b9150620006ee836200025e565b9250828201905080821115620007095762000708620006a5565b5b92915050565b6200071a816200025e565b82525050565b60006020820190506200073760008301846200070f565b92915050565b611267806200074d6000396000f3fe608060405234801561001057600080fd5b50600436106100b45760003560e01c806370a082311161007157806370a08231146101a357806395d89b41146101d3578063a457c2d7146101f1578063a9059cbb14610221578063c4e41b2214610251578063dd62ed3e1461026f576100b4565b806306fdde03146100b9578063095ea7b3146100d757806318160ddd1461010757806323b872dd14610125578063313ce567146101555780633950935114610173575b600080fd5b6100c161029f565b6040516100ce9190610b44565b60405180910390f35b6100f160048036038101906100ec9190610bff565b610331565b6040516100fe9190610c5a565b60405180910390f35b61010f610354565b60405161011c9190610c84565b60405180910390f35b61013f600480360381019061013a9190610c9f565b61035e565b60405161014c9190610c5a565b60405180910390f35b61015d61038d565b60405161016a9190610d0e565b60405180910390f35b61018d60048036038101906101889190610bff565b610396565b60405161019a9190610c5a565b60405180910390f35b6101bd60048036038101906101b89190610d29565b6103cd565b6040516101ca9190610c84565b60405180910390f35b6101db610415565b6040516101e89190610b44565b60405180910390f35b61020b60048036038101906102069190610bff565b6104a7565b6040516102189190610c5a565b60405180910390f35b61023b60048036038101906102369190610bff565b61051e565b6040516102489190610c5a565b60405180910390f35b610259610541565b6040516102669190610c84565b60405180910390f35b61028960048036038101906102849190610d56565b610550565b6040516102969190610c84565b60405180910390f35b6060600380546102ae90610dc5565b80601f01602080910402602001604051908101604052809291908181526020018280546102da90610dc5565b80156103275780601f106102fc57610100808354040283529160200191610327565b820191906000526020600020905b81548152906001019060200180831161030a57829003601f168201915b5050505050905090565b60008061033c6105d7565b90506103498185856105df565b600191505092915050565b6000600254905090565b6000806103696105d7565b90506103768582856107a8565b610381858585610834565b60019150509392505050565b60006012905090565b6000806103a16105d7565b90506103c28185856103b38589610550565b6103bd9190610e25565b6105df565b600191505092915050565b60008060008373ffffffffffffffffffffffffffffffffffffffff1673ffffffffffffffffffffffffffffffffffffffff168152602001908152602001600020549050919050565b60606004805461042490610dc5565b80601f016020809104026020016040519081016040528092919081815260200182805461045090610dc5565b801561049d5780601f106104725761010080835404028352916020019161049d565b820191906000526020600020905b81548152906001019060200180831161048057829003601f168201915b5050505050905090565b6000806104b26105d7565b905060006104c08286610550565b905083811015610505576040517f08c379a00000000000000000000000000000000000000000000000000000000081526004016104fc90610ecb565b60405180910390fd5b61051282868684036105df565b60019250505092915050565b6000806105296105d7565b9050610536818585610834565b600191505092915050565b600061054b610354565b905090565b6000600160008473ffffffffffffffffffffffffffffffffffffffff1673ffffffffffffffffffffffffffffffffffffffff16815260200190815260200160002060008373ffffffffffffffffffffffffffffffffffffffff1673ffffffffffffffffffffffffffffffffffffffff16815260200190815260200160002054905092915050565b600033905090565b600073ffffffffffffffffffffffffffffffffffffffff168373ffffffffffffffffffffffffffffffffffffffff160361064e576040517f08c379a000000000000000000000000000000000000000000000000000000000815260040161064590610f5d565b60405180910390fd5b600073ffffffffffffffffffffffffffffffffffffffff168273ffffffffffffffffffffffffffffffffffffffff16036106bd576040517f08c379a00000000000000000000000000000000000000000000000000000000081526004016106b490610fef565b60405180910390fd5b80600160008573ffffffffffffffffffffffffffffffffffffffff1673ffffffffffffffffffffffffffffffffffffffff16815260200190815260200160002060008473ffffffffffffffffffffffffffffffffffffffff1673ffffffffffffffffffffffffffffffffffffffff168152602001908152602001600020819055508173ffffffffffffffffffffffffffffffffffffffff168373ffffffffffffffffffffffffffffffffffffffff167f8c5be1e5ebec7d5bd14f71427d1e84f3dd0314c0f7b2291e5b200ac8c7c3b9258360405161079b9190610c84565b60405180910390a3505050565b60006107b48484610550565b90507fffffffffffffffffffffffffffffffffffffffffffffffffffffffffffffffff811461082e5781811015610820576040517f08c379a00000000000000000000000000000000000000000000000000000000081526004016108179061105b565b60405180910390fd5b61082d84848484036105df565b5b50505050565b600073ffffffffffffffffffffffffffffffffffffffff168373ffffffffffffffffffffffffffffffffffffffff16036108a3576040517f08c379a000000000000000000000000000000000000000000000000000000000815260040161089a906110ed565b60405180910390fd5b600073ffffffffffffffffffffffffffffffffffffffff168273ffffffffffffffffffffffffffffffffffffffff1603610912576040517f08c379a00000000000000000000000000000000000000000000000000000000081526004016109099061117f565b60405180910390fd5b61091d838383610aaa565b60008060008573ffffffffffffffffffffffffffffffffffffffff1673ffffffffffffffffffffffffffffffffffffffff168152602001908152602001600020549050818110156109a3576040517f08c379a000000000000000000000000000000000000000000000000000000000815260040161099a90611211565b60405180910390fd5b8181036000808673ffffffffffffffffffffffffffffffffffffffff1673ffffffffffffffffffffffffffffffffffffffff16815260200190815260200160002081905550816000808573ffffffffffffffffffffffffffffffffffffffff1673ffffffffffffffffffffffffffffffffffffffff168152602001908152602001600020600082825401925050819055508273ffffffffffffffffffffffffffffffffffffffff168473ffffffffffffffffffffffffffffffffffffffff167fddf252ad1be2c89b69c2b068fc378daa952ba7f163c4a11628f55a4df523b3ef84604051610a919190610c84565b60405180910390a3610aa4848484610aaf565b50505050565b505050565b505050565b600081519050919050565b600082825260208201905092915050565b60005b83811015610aee578082015181840152602081019050610ad3565b60008484015250505050565b6000601f19601f8301169050919050565b6000610b1682610ab4565b610b208185610abf565b9350610b30818560208601610ad0565b610b3981610afa565b840191505092915050565b60006020820190508181036000830152610b5e8184610b0b565b905092915050565b600080fd5b600073ffffffffffffffffffffffffffffffffffffffff82169050919050565b6000610b9682610b6b565b9050919050565b610ba681610b8b565b8114610bb157600080fd5b50565b600081359050610bc381610b9d565b92915050565b6000819050919050565b610bdc81610bc9565b8114610be757600080fd5b50565b600081359050610bf981610bd3565b92915050565b60008060408385031215610c1657610c15610b66565b5b6000610c2485828601610bb4565b9250506020610c3585828601610bea565b9150509250929050565b60008115159050919050565b610c5481610c3f565b82525050565b6000602082019050610c6f6000830184610c4b565b92915050565b610c7e81610bc9565b82525050565b6000602082019050610c996000830184610c75565b92915050565b600080600060608486031215610cb857610cb7610b66565b5b6000610cc686828701610bb4565b9350506020610cd786828701610bb4565b9250506040610ce886828701610bea565b9150509250925092565b600060ff82169050919050565b610d0881610cf2565b82525050565b6000602082019050610d236000830184610cff565b92915050565b600060208284031215610d3f57610d3e610b66565b5b6000610d4d84828501610bb4565b91505092915050565b60008060408385031215610d6d57610d6c610b66565b5b6000610d7b85828601610bb4565b9250506020610d8c85828601610bb4565b9150509250929050565b7f4e487b7100000000000000000000000000000000000000000000000000000000600052602260045260246000fd5b60006002820490506001821680610ddd57607f821691505b602082108103610df057610def610d96565b5b50919050565b7f4e487b7100000000000000000000000000000000000000000000000000000000600052601160045260246000fd5b6000610e3082610bc9565b9150610e3b83610bc9565b9250828201905080821115610e5357610e52610df6565b5b92915050565b7f45524332303a2064656372656173656420616c6c6f77616e63652062656c6f7760008201527f207a65726f000000000000000000000000000000000000000000000000000000602082015250565b6000610eb5602583610abf565b9150610ec082610e59565b604082019050919050565b60006020820190508181036000830152610ee481610ea8565b9050919050565b7f45524332303a20617070726f76652066726f6d20746865207a65726f2061646460008201527f7265737300000000000000000000000000000000000000000000000000000000602082015250565b6000610f47602483610abf565b9150610f5282610eeb565b604082019050919050565b60006020820190508181036000830152610f7681610f3a565b9050919050565b7f45524332303a20617070726f766520746f20746865207a65726f20616464726560008201527f7373000000000000000000000000000000000000000000000000000000000000602082015250565b6000610fd9602283610abf565b9150610fe482610f7d565b604082019050919050565b6000602082019050818103600083015261100881610fcc565b9050919050565b7f45524332303a20696e73756666696369656e7420616c6c6f77616e6365000000600082015250565b6000611045601d83610abf565b91506110508261100f565b602082019050919050565b6000602082019050818103600083015261107481611038565b9050919050565b7f45524332303a207472616e736665722066726f6d20746865207a65726f20616460008201527f6472657373000000000000000000000000000000000000000000000000000000602082015250565b60006110d7602583610abf565b91506110e28261107b565b604082019050919050565b60006020820190508181036000830152611106816110ca565b9050919050565b7f45524332303a207472616e7366657220746f20746865207a65726f206164647260008201527f6573730000000000000000000000000000000000000000000000000000000000602082015250565b6000611169602383610abf565b91506111748261110d565b604082019050919050565b600060208201905081810360008301526111988161115c565b9050919050565b7f45524332303a207472616e7366657220616d6f756e742065786365656473206260008201527f616c616e63650000000000000000000000000000000000000000000000000000602082015250565b60006111fb602683610abf565b91506112068261119f565b604082019050919050565b6000602082019050818103600083015261122a816111ee565b905091905056fea26469706673582212206bfe87396cf6fac41a8199bf84068885e16034105e075aaaf587d3c1920c6d1f64736f6c63430008110033",
  "linkReferences": {},
  "deployedLinkReferences": {}
}