{
  "_format": "hh-sol-artifact-1",
  "contractName": "signUp",
  "sourceName": "contracts/Register.sol",
  "abi": [
    {
      "inputs": [
        {
          "internalType": "string",
          "name": "id",
          "type": "string"
        },
        {
          "internalType": "string",
          "name": "pw",
          "type": "string"
        }
      ],
      "name": "login",
      "outputs": [
        {
          "internalType": "string",
          "name": "",
          "type": "string"
        },
        {
          "internalType": "uint256",
          "name": "",
          "type": "uint256"
        }
      ],
      "stateMutability": "view",
      "type": "function"
    },
    {
      "inputs": [
        {
          "internalType": "string",
          "name": "id",
          "type": "string"
        },
        {
          "internalType": "string",
          "name": "pw",
          "type": "string"
        },
        {
          "internalType": "string",
          "name": "name",
          "type": "string"
        },
        {
          "internalType": "uint256",
          "name": "snum",
          "type": "uint256"
        }
      ],
      "name": "register",
      "outputs": [],
      "stateMutability": "nonpayable",
      "type": "function"
    },
    {
      "inputs": [
        {
          "internalType": "string",
          "name": "id",
          "type": "string"
        },
        {
          "internalType": "string",
          "name": "pw",
          "type": "string"
        }
      ],
      "name": "withdraw",
      "outputs": [],
      "stateMutability": "nonpayable",
      "type": "function"
    }
  ],
  "bytecode": "0x608060405234801561001057600080fd5b50610c7d806100206000396000f3fe608060405234801561001057600080fd5b50600436106100415760003560e01c806302110d251461004657806320b2e7bf1461006257806358467dbc1461007e575b600080fd5b610060600480360381019061005b91906105e1565b6100af565b005b61007c6004803603810190610077919061069c565b6101bb565b005b6100986004803603810190610093919061069c565b61021e565b6040516100a69291906107a2565b60405180910390f35b6000846040516100bf919061080e565b908152602001604051809103902060030160009054906101000a900460ff161561011e576040517f08c379a000000000000000000000000000000000000000000000000000000000815260040161011590610871565b60405180910390fd5b604051806080016040528061013285610306565b81526020018381526020018281526020016001151581525060008560405161015a919061080e565b90815260200160405180910390206000820151816000015560208201518160010190816101879190610a9d565b506040820151816002015560608201518160030160006101000a81548160ff02191690831515021790555090505050505050565b6101c58282610317565b6000826040516101d5919061080e565b90815260200160405180910390206000808201600090556001820160006101fc91906103f4565b60028201600090556003820160006101000a81549060ff021916905550505050565b6060600061022c8484610317565b60008460405161023c919061080e565b908152602001604051809103902060010160008560405161025d919061080e565b90815260200160405180910390206002015481805461027b906108c0565b80601f01602080910402602001604051908101604052809291908181526020018280546102a7906108c0565b80156102f45780601f106102c9576101008083540402835291602001916102f4565b820191906000526020600020905b8154815290600101906020018083116102d757829003601f168201915b50505050509150915091509250929050565b600081805190602001209050919050565b600082604051610327919061080e565b908152602001604051809103902060030160009054906101000a900460ff16610385576040517f08c379a000000000000000000000000000000000000000000000000000000000815260040161037c90610bbb565b60405180910390fd5b61038e81610306565b60008360405161039e919061080e565b908152602001604051809103902060000154146103f0576040517f08c379a00000000000000000000000000000000000000000000000000000000081526004016103e790610c27565b60405180910390fd5b5050565b508054610400906108c0565b6000825580601f106104125750610431565b601f0160209004906000526020600020908101906104309190610434565b5b50565b5b8082111561044d576000816000905550600101610435565b5090565b6000604051905090565b600080fd5b600080fd5b600080fd5b600080fd5b6000601f19601f8301169050919050565b7f4e487b7100000000000000000000000000000000000000000000000000000000600052604160045260246000fd5b6104b88261046f565b810181811067ffffffffffffffff821117156104d7576104d6610480565b5b80604052505050565b60006104ea610451565b90506104f682826104af565b919050565b600067ffffffffffffffff82111561051657610515610480565b5b61051f8261046f565b9050602081019050919050565b82818337600083830152505050565b600061054e610549846104fb565b6104e0565b90508281526020810184848401111561056a5761056961046a565b5b61057584828561052c565b509392505050565b600082601f83011261059257610591610465565b5b81356105a284826020860161053b565b91505092915050565b6000819050919050565b6105be816105ab565b81146105c957600080fd5b50565b6000813590506105db816105b5565b92915050565b600080600080608085870312156105fb576105fa61045b565b5b600085013567ffffffffffffffff81111561061957610618610460565b5b6106258782880161057d565b945050602085013567ffffffffffffffff81111561064657610645610460565b5b6106528782880161057d565b935050604085013567ffffffffffffffff81111561067357610672610460565b5b61067f8782880161057d565b9250506060610690878288016105cc565b91505092959194509250565b600080604083850312156106b3576106b261045b565b5b600083013567ffffffffffffffff8111156106d1576106d0610460565b5b6106dd8582860161057d565b925050602083013567ffffffffffffffff8111156106fe576106fd610460565b5b61070a8582860161057d565b9150509250929050565b600081519050919050565b600082825260208201905092915050565b60005b8381101561074e578082015181840152602081019050610733565b60008484015250505050565b600061076582610714565b61076f818561071f565b935061077f818560208601610730565b6107888161046f565b840191505092915050565b61079c816105ab565b82525050565b600060408201905081810360008301526107bc818561075a565b90506107cb6020830184610793565b9392505050565b600081905092915050565b60006107e882610714565b6107f281856107d2565b9350610802818560208601610730565b80840191505092915050565b600061081a82846107dd565b915081905092915050565b7f696420697320616c726561647920726567697374657265640000000000000000600082015250565b600061085b60188361071f565b915061086682610825565b602082019050919050565b6000602082019050818103600083015261088a8161084e565b9050919050565b7f4e487b7100000000000000000000000000000000000000000000000000000000600052602260045260246000fd5b600060028204905060018216806108d857607f821691505b6020821081036108eb576108ea610891565b5b50919050565b60008190508160005260206000209050919050565b60006020601f8301049050919050565b600082821b905092915050565b6000600883026109537fffffffffffffffffffffffffffffffffffffffffffffffffffffffffffffffff82610916565b61095d8683610916565b95508019841693508086168417925050509392505050565b6000819050919050565b600061099a610995610990846105ab565b610975565b6105ab565b9050919050565b6000819050919050565b6109b48361097f565b6109c86109c0826109a1565b848454610923565b825550505050565b600090565b6109dd6109d0565b6109e88184846109ab565b505050565b5b81811015610a0c57610a016000826109d5565b6001810190506109ee565b5050565b601f821115610a5157610a22816108f1565b610a2b84610906565b81016020851015610a3a578190505b610a4e610a4685610906565b8301826109ed565b50505b505050565b600082821c905092915050565b6000610a7460001984600802610a56565b1980831691505092915050565b6000610a8d8383610a63565b9150826002028217905092915050565b610aa682610714565b67ffffffffffffffff811115610abf57610abe610480565b5b610ac982546108c0565b610ad4828285610a10565b600060209050601f831160018114610b075760008415610af5578287015190505b610aff8582610a81565b865550610b67565b601f198416610b15866108f1565b60005b82811015610b3d57848901518255600182019150602085019450602081019050610b18565b86831015610b5a5784890151610b56601f891682610a63565b8355505b6001600288020188555050505b505050505050565b7f6e6f207265676973746572656400000000000000000000000000000000000000600082015250565b6000610ba5600d8361071f565b9150610bb082610b6f565b602082019050919050565b60006020820190508181036000830152610bd481610b98565b9050919050565b7f70617373776f726420696e636f72726563740000000000000000000000000000600082015250565b6000610c1160128361071f565b9150610c1c82610bdb565b602082019050919050565b60006020820190508181036000830152610c4081610c04565b905091905056fea26469706673582212205646671f905a3e874861dc7059c12c38b661e0c84f6d24bde7cb33126712ca0064736f6c63430008110033",
  "linkReferences": {},
  "deployedLinkReferences": {}
}