{"contracts/Register.sol":{"signUp":{"abi":[{"inputs":[{"internalType":"string","name":"id","type":"string"},{"internalType":"string","name":"pw","type":"string"}],"name":"login","outputs":[{"internalType":"string","name":"","type":"string"},{"internalType":"uint256","name":"","type":"uint256"}],"stateMutability":"view","type":"function"},{"inputs":[{"internalType":"string","name":"id","type":"string"},{"internalType":"string","name":"pw","type":"string"},{"internalType":"string","name":"name","type":"string"},{"internalType":"uint256","name":"snum","type":"uint256"}],"name":"register","outputs":[],"stateMutability":"nonpayable","type":"function"},{"inputs":[{"internalType":"string","name":"id","type":"string"},{"internalType":"string","name":"pw","type":"string"}],"name":"withdraw","outputs":[],"stateMutability":"nonpayable","type":"function"}],"evm":{"bytecode":{"linkReferences":{},"object":"608060405234801561001057600080fd5b50610c7d806100206000396000f3fe608060405234801561001057600080fd5b50600436106100415760003560e01c806302110d251461004657806320b2e7bf1461006257806358467dbc1461007e575b600080fd5b610060600480360381019061005b91906105e1565b6100af565b005b61007c6004803603810190610077919061069c565b6101bb565b005b6100986004803603810190610093919061069c565b61021e565b6040516100a69291906107a2565b60405180910390f35b6000846040516100bf919061080e565b908152602001604051809103902060030160009054906101000a900460ff161561011e576040517f08c379a000000000000000000000000000000000000000000000000000000000815260040161011590610871565b60405180910390fd5b604051806080016040528061013285610306565b81526020018381526020018281526020016001151581525060008560405161015a919061080e565b90815260200160405180910390206000820151816000015560208201518160010190816101879190610a9d565b506040820151816002015560608201518160030160006101000a81548160ff02191690831515021790555090505050505050565b6101c58282610317565b6000826040516101d5919061080e565b90815260200160405180910390206000808201600090556001820160006101fc91906103f4565b60028201600090556003820160006101000a81549060ff021916905550505050565b6060600061022c8484610317565b60008460405161023c919061080e565b908152602001604051809103902060010160008560405161025d919061080e565b90815260200160405180910390206002015481805461027b906108c0565b80601f01602080910402602001604051908101604052809291908181526020018280546102a7906108c0565b80156102f45780601f106102c9576101008083540402835291602001916102f4565b820191906000526020600020905b8154815290600101906020018083116102d757829003601f168201915b50505050509150915091509250929050565b600081805190602001209050919050565b600082604051610327919061080e565b908152602001604051809103902060030160009054906101000a900460ff16610385576040517f08c379a000000000000000000000000000000000000000000000000000000000815260040161037c90610bbb565b60405180910390fd5b61038e81610306565b60008360405161039e919061080e565b908152602001604051809103902060000154146103f0576040517f08c379a00000000000000000000000000000000000000000000000000000000081526004016103e790610c27565b60405180910390fd5b5050565b508054610400906108c0565b6000825580601f106104125750610431565b601f0160209004906000526020600020908101906104309190610434565b5b50565b5b8082111561044d576000816000905550600101610435565b5090565b6000604051905090565b600080fd5b600080fd5b600080fd5b600080fd5b6000601f19601f8301169050919050565b7f4e487b7100000000000000000000000000000000000000000000000000000000600052604160045260246000fd5b6104b88261046f565b810181811067ffffffffffffffff821117156104d7576104d6610480565b5b80604052505050565b60006104ea610451565b90506104f682826104af565b919050565b600067ffffffffffffffff82111561051657610515610480565b5b61051f8261046f565b9050602081019050919050565b82818337600083830152505050565b600061054e610549846104fb565b6104e0565b90508281526020810184848401111561056a5761056961046a565b5b61057584828561052c565b509392505050565b600082601f83011261059257610591610465565b5b81356105a284826020860161053b565b91505092915050565b6000819050919050565b6105be816105ab565b81146105c957600080fd5b50565b6000813590506105db816105b5565b92915050565b600080600080608085870312156105fb576105fa61045b565b5b600085013567ffffffffffffffff81111561061957610618610460565b5b6106258782880161057d565b945050602085013567ffffffffffffffff81111561064657610645610460565b5b6106528782880161057d565b935050604085013567ffffffffffffffff81111561067357610672610460565b5b61067f8782880161057d565b9250506060610690878288016105cc565b91505092959194509250565b600080604083850312156106b3576106b261045b565b5b600083013567ffffffffffffffff8111156106d1576106d0610460565b5b6106dd8582860161057d565b925050602083013567ffffffffffffffff8111156106fe576106fd610460565b5b61070a8582860161057d565b9150509250929050565b600081519050919050565b600082825260208201905092915050565b60005b8381101561074e578082015181840152602081019050610733565b60008484015250505050565b600061076582610714565b61076f818561071f565b935061077f818560208601610730565b6107888161046f565b840191505092915050565b61079c816105ab565b82525050565b600060408201905081810360008301526107bc818561075a565b90506107cb6020830184610793565b9392505050565b600081905092915050565b60006107e882610714565b6107f281856107d2565b9350610802818560208601610730565b80840191505092915050565b600061081a82846107dd565b915081905092915050565b7f696420697320616c726561647920726567697374657265640000000000000000600082015250565b600061085b60188361071f565b915061086682610825565b602082019050919050565b6000602082019050818103600083015261088a8161084e565b9050919050565b7f4e487b7100000000000000000000000000000000000000000000000000000000600052602260045260246000fd5b600060028204905060018216806108d857607f821691505b6020821081036108eb576108ea610891565b5b50919050565b60008190508160005260206000209050919050565b60006020601f8301049050919050565b600082821b905092915050565b6000600883026109537fffffffffffffffffffffffffffffffffffffffffffffffffffffffffffffffff82610916565b61095d8683610916565b95508019841693508086168417925050509392505050565b6000819050919050565b600061099a610995610990846105ab565b610975565b6105ab565b9050919050565b6000819050919050565b6109b48361097f565b6109c86109c0826109a1565b848454610923565b825550505050565b600090565b6109dd6109d0565b6109e88184846109ab565b505050565b5b81811015610a0c57610a016000826109d5565b6001810190506109ee565b5050565b601f821115610a5157610a22816108f1565b610a2b84610906565b81016020851015610a3a578190505b610a4e610a4685610906565b8301826109ed565b50505b505050565b600082821c905092915050565b6000610a7460001984600802610a56565b1980831691505092915050565b6000610a8d8383610a63565b9150826002028217905092915050565b610aa682610714565b67ffffffffffffffff811115610abf57610abe610480565b5b610ac982546108c0565b610ad4828285610a10565b600060209050601f831160018114610b075760008415610af5578287015190505b610aff8582610a81565b865550610b67565b601f198416610b15866108f1565b60005b82811015610b3d57848901518255600182019150602085019450602081019050610b18565b86831015610b5a5784890151610b56601f891682610a63565b8355505b6001600288020188555050505b505050505050565b7f6e6f207265676973746572656400000000000000000000000000000000000000600082015250565b6000610ba5600d8361071f565b9150610bb082610b6f565b602082019050919050565b60006020820190508181036000830152610bd481610b98565b9050919050565b7f70617373776f726420696e636f72726563740000000000000000000000000000600082015250565b6000610c1160128361071f565b9150610c1c82610bdb565b602082019050919050565b60006020820190508181036000830152610c4081610c04565b905091905056fea26469706673582212205646671f905a3e874861dc7059c12c38b661e0c84f6d24bde7cb33126712ca0064736f6c63430008110033","opcodes":"PUSH1 0x80 PUSH1 0x40 MSTORE CALLVALUE DUP1 ISZERO PUSH2 0x10 JUMPI PUSH1 0x0 DUP1 REVERT JUMPDEST POP PUSH2 0xC7D DUP1 PUSH2 0x20 PUSH1 0x0 CODECOPY PUSH1 0x0 RETURN INVALID PUSH1 0x80 PUSH1 0x40 MSTORE CALLVALUE DUP1 ISZERO PUSH2 0x10 JUMPI PUSH1 0x0 DUP1 REVERT JUMPDEST POP PUSH1 0x4 CALLDATASIZE LT PUSH2 0x41 JUMPI PUSH1 0x0 CALLDATALOAD PUSH1 0xE0 SHR DUP1 PUSH4 0x2110D25 EQ PUSH2 0x46 JUMPI DUP1 PUSH4 0x20B2E7BF EQ PUSH2 0x62 JUMPI DUP1 PUSH4 0x58467DBC EQ PUSH2 0x7E JUMPI JUMPDEST PUSH1 0x0 DUP1 REVERT JUMPDEST PUSH2 0x60 PUSH1 0x4 DUP1 CALLDATASIZE SUB DUP2 ADD SWAP1 PUSH2 0x5B SWAP2 SWAP1 PUSH2 0x5E1 JUMP JUMPDEST PUSH2 0xAF JUMP JUMPDEST STOP JUMPDEST PUSH2 0x7C PUSH1 0x4 DUP1 CALLDATASIZE SUB DUP2 ADD SWAP1 PUSH2 0x77 SWAP2 SWAP1 PUSH2 0x69C JUMP JUMPDEST PUSH2 0x1BB JUMP JUMPDEST STOP JUMPDEST PUSH2 0x98 PUSH1 0x4 DUP1 CALLDATASIZE SUB DUP2 ADD SWAP1 PUSH2 0x93 SWAP2 SWAP1 PUSH2 0x69C JUMP JUMPDEST PUSH2 0x21E JUMP JUMPDEST PUSH1 0x40 MLOAD PUSH2 0xA6 SWAP3 SWAP2 SWAP1 PUSH2 0x7A2 JUMP JUMPDEST PUSH1 0x40 MLOAD DUP1 SWAP2 SUB SWAP1 RETURN JUMPDEST PUSH1 0x0 DUP5 PUSH1 0x40 MLOAD PUSH2 0xBF SWAP2 SWAP1 PUSH2 0x80E JUMP JUMPDEST SWAP1 DUP2 MSTORE PUSH1 0x20 ADD PUSH1 0x40 MLOAD DUP1 SWAP2 SUB SWAP1 KECCAK256 PUSH1 0x3 ADD PUSH1 0x0 SWAP1 SLOAD SWAP1 PUSH2 0x100 EXP SWAP1 DIV PUSH1 0xFF AND ISZERO PUSH2 0x11E JUMPI PUSH1 0x40 MLOAD PUSH32 0x8C379A000000000000000000000000000000000000000000000000000000000 DUP2 MSTORE PUSH1 0x4 ADD PUSH2 0x115 SWAP1 PUSH2 0x871 JUMP JUMPDEST PUSH1 0x40 MLOAD DUP1 SWAP2 SUB SWAP1 REVERT JUMPDEST PUSH1 0x40 MLOAD DUP1 PUSH1 0x80 ADD PUSH1 0x40 MSTORE DUP1 PUSH2 0x132 DUP6 PUSH2 0x306 JUMP JUMPDEST DUP2 MSTORE PUSH1 0x20 ADD DUP4 DUP2 MSTORE PUSH1 0x20 ADD DUP3 DUP2 MSTORE PUSH1 0x20 ADD PUSH1 0x1 ISZERO ISZERO DUP2 MSTORE POP PUSH1 0x0 DUP6 PUSH1 0x40 MLOAD PUSH2 0x15A SWAP2 SWAP1 PUSH2 0x80E JUMP JUMPDEST SWAP1 DUP2 MSTORE PUSH1 0x20 ADD PUSH1 0x40 MLOAD DUP1 SWAP2 SUB SWAP1 KECCAK256 PUSH1 0x0 DUP3 ADD MLOAD DUP2 PUSH1 0x0 ADD SSTORE PUSH1 0x20 DUP3 ADD MLOAD DUP2 PUSH1 0x1 ADD SWAP1 DUP2 PUSH2 0x187 SWAP2 SWAP1 PUSH2 0xA9D JUMP JUMPDEST POP PUSH1 0x40 DUP3 ADD MLOAD DUP2 PUSH1 0x2 ADD SSTORE PUSH1 0x60 DUP3 ADD MLOAD DUP2 PUSH1 0x3 ADD PUSH1 0x0 PUSH2 0x100 EXP DUP2 SLOAD DUP2 PUSH1 0xFF MUL NOT AND SWAP1 DUP4 ISZERO ISZERO MUL OR SWAP1 SSTORE POP SWAP1 POP POP POP POP POP POP JUMP JUMPDEST PUSH2 0x1C5 DUP3 DUP3 PUSH2 0x317 JUMP JUMPDEST PUSH1 0x0 DUP3 PUSH1 0x40 MLOAD PUSH2 0x1D5 SWAP2 SWAP1 PUSH2 0x80E JUMP JUMPDEST SWAP1 DUP2 MSTORE PUSH1 0x20 ADD PUSH1 0x40 MLOAD DUP1 SWAP2 SUB SWAP1 KECCAK256 PUSH1 0x0 DUP1 DUP3 ADD PUSH1 0x0 SWAP1 SSTORE PUSH1 0x1 DUP3 ADD PUSH1 0x0 PUSH2 0x1FC SWAP2 SWAP1 PUSH2 0x3F4 JUMP JUMPDEST PUSH1 0x2 DUP3 ADD PUSH1 0x0 SWAP1 SSTORE PUSH1 0x3 DUP3 ADD PUSH1 0x0 PUSH2 0x100 EXP DUP2 SLOAD SWAP1 PUSH1 0xFF MUL NOT AND SWAP1 SSTORE POP POP POP POP JUMP JUMPDEST PUSH1 0x60 PUSH1 0x0 PUSH2 0x22C DUP5 DUP5 PUSH2 0x317 JUMP JUMPDEST PUSH1 0x0 DUP5 PUSH1 0x40 MLOAD PUSH2 0x23C SWAP2 SWAP1 PUSH2 0x80E JUMP JUMPDEST SWAP1 DUP2 MSTORE PUSH1 0x20 ADD PUSH1 0x40 MLOAD DUP1 SWAP2 SUB SWAP1 KECCAK256 PUSH1 0x1 ADD PUSH1 0x0 DUP6 PUSH1 0x40 MLOAD PUSH2 0x25D SWAP2 SWAP1 PUSH2 0x80E JUMP JUMPDEST SWAP1 DUP2 MSTORE PUSH1 0x20 ADD PUSH1 0x40 MLOAD DUP1 SWAP2 SUB SWAP1 KECCAK256 PUSH1 0x2 ADD SLOAD DUP2 DUP1 SLOAD PUSH2 0x27B SWAP1 PUSH2 0x8C0 JUMP JUMPDEST DUP1 PUSH1 0x1F ADD PUSH1 0x20 DUP1 SWAP2 DIV MUL PUSH1 0x20 ADD PUSH1 0x40 MLOAD SWAP1 DUP2 ADD PUSH1 0x40 MSTORE DUP1 SWAP3 SWAP2 SWAP1 DUP2 DUP2 MSTORE PUSH1 0x20 ADD DUP3 DUP1 SLOAD PUSH2 0x2A7 SWAP1 PUSH2 0x8C0 JUMP JUMPDEST DUP1 ISZERO PUSH2 0x2F4 JUMPI DUP1 PUSH1 0x1F LT PUSH2 0x2C9 JUMPI PUSH2 0x100 DUP1 DUP4 SLOAD DIV MUL DUP4 MSTORE SWAP2 PUSH1 0x20 ADD SWAP2 PUSH2 0x2F4 JUMP JUMPDEST DUP3 ADD SWAP2 SWAP1 PUSH1 0x0 MSTORE PUSH1 0x20 PUSH1 0x0 KECCAK256 SWAP1 JUMPDEST DUP2 SLOAD DUP2 MSTORE SWAP1 PUSH1 0x1 ADD SWAP1 PUSH1 0x20 ADD DUP1 DUP4 GT PUSH2 0x2D7 JUMPI DUP3 SWAP1 SUB PUSH1 0x1F AND DUP3 ADD SWAP2 JUMPDEST POP POP POP POP POP SWAP2 POP SWAP2 POP SWAP2 POP SWAP3 POP SWAP3 SWAP1 POP JUMP JUMPDEST PUSH1 0x0 DUP2 DUP1 MLOAD SWAP1 PUSH1 0x20 ADD KECCAK256 SWAP1 POP SWAP2 SWAP1 POP JUMP JUMPDEST PUSH1 0x0 DUP3 PUSH1 0x40 MLOAD PUSH2 0x327 SWAP2 SWAP1 PUSH2 0x80E JUMP JUMPDEST SWAP1 DUP2 MSTORE PUSH1 0x20 ADD PUSH1 0x40 MLOAD DUP1 SWAP2 SUB SWAP1 KECCAK256 PUSH1 0x3 ADD PUSH1 0x0 SWAP1 SLOAD SWAP1 PUSH2 0x100 EXP SWAP1 DIV PUSH1 0xFF AND PUSH2 0x385 JUMPI PUSH1 0x40 MLOAD PUSH32 0x8C379A000000000000000000000000000000000000000000000000000000000 DUP2 MSTORE PUSH1 0x4 ADD PUSH2 0x37C SWAP1 PUSH2 0xBBB JUMP JUMPDEST PUSH1 0x40 MLOAD DUP1 SWAP2 SUB SWAP1 REVERT JUMPDEST PUSH2 0x38E DUP2 PUSH2 0x306 JUMP JUMPDEST PUSH1 0x0 DUP4 PUSH1 0x40 MLOAD PUSH2 0x39E SWAP2 SWAP1 PUSH2 0x80E JUMP JUMPDEST SWAP1 DUP2 MSTORE PUSH1 0x20 ADD PUSH1 0x40 MLOAD DUP1 SWAP2 SUB SWAP1 KECCAK256 PUSH1 0x0 ADD SLOAD EQ PUSH2 0x3F0 JUMPI PUSH1 0x40 MLOAD PUSH32 0x8C379A000000000000000000000000000000000000000000000000000000000 DUP2 MSTORE PUSH1 0x4 ADD PUSH2 0x3E7 SWAP1 PUSH2 0xC27 JUMP JUMPDEST PUSH1 0x40 MLOAD DUP1 SWAP2 SUB SWAP1 REVERT JUMPDEST POP POP JUMP JUMPDEST POP DUP1 SLOAD PUSH2 0x400 SWAP1 PUSH2 0x8C0 JUMP JUMPDEST PUSH1 0x0 DUP3 SSTORE DUP1 PUSH1 0x1F LT PUSH2 0x412 JUMPI POP PUSH2 0x431 JUMP JUMPDEST PUSH1 0x1F ADD PUSH1 0x20 SWAP1 DIV SWAP1 PUSH1 0x0 MSTORE PUSH1 0x20 PUSH1 0x0 KECCAK256 SWAP1 DUP2 ADD SWAP1 PUSH2 0x430 SWAP2 SWAP1 PUSH2 0x434 JUMP JUMPDEST JUMPDEST POP JUMP JUMPDEST JUMPDEST DUP1 DUP3 GT ISZERO PUSH2 0x44D JUMPI PUSH1 0x0 DUP2 PUSH1 0x0 SWAP1 SSTORE POP PUSH1 0x1 ADD PUSH2 0x435 JUMP JUMPDEST POP SWAP1 JUMP JUMPDEST PUSH1 0x0 PUSH1 0x40 MLOAD SWAP1 POP SWAP1 JUMP JUMPDEST PUSH1 0x0 DUP1 REVERT JUMPDEST PUSH1 0x0 DUP1 REVERT JUMPDEST PUSH1 0x0 DUP1 REVERT JUMPDEST PUSH1 0x0 DUP1 REVERT JUMPDEST PUSH1 0x0 PUSH1 0x1F NOT PUSH1 0x1F DUP4 ADD AND SWAP1 POP SWAP2 SWAP1 POP JUMP JUMPDEST PUSH32 0x4E487B7100000000000000000000000000000000000000000000000000000000 PUSH1 0x0 MSTORE PUSH1 0x41 PUSH1 0x4 MSTORE PUSH1 0x24 PUSH1 0x0 REVERT JUMPDEST PUSH2 0x4B8 DUP3 PUSH2 0x46F JUMP JUMPDEST DUP2 ADD DUP2 DUP2 LT PUSH8 0xFFFFFFFFFFFFFFFF DUP3 GT OR ISZERO PUSH2 0x4D7 JUMPI PUSH2 0x4D6 PUSH2 0x480 JUMP JUMPDEST JUMPDEST DUP1 PUSH1 0x40 MSTORE POP POP POP JUMP JUMPDEST PUSH1 0x0 PUSH2 0x4EA PUSH2 0x451 JUMP JUMPDEST SWAP1 POP PUSH2 0x4F6 DUP3 DUP3 PUSH2 0x4AF JUMP JUMPDEST SWAP2 SWAP1 POP JUMP JUMPDEST PUSH1 0x0 PUSH8 0xFFFFFFFFFFFFFFFF DUP3 GT ISZERO PUSH2 0x516 JUMPI PUSH2 0x515 PUSH2 0x480 JUMP JUMPDEST JUMPDEST PUSH2 0x51F DUP3 PUSH2 0x46F JUMP JUMPDEST SWAP1 POP PUSH1 0x20 DUP2 ADD SWAP1 POP SWAP2 SWAP1 POP JUMP JUMPDEST DUP3 DUP2 DUP4 CALLDATACOPY PUSH1 0x0 DUP4 DUP4 ADD MSTORE POP POP POP JUMP JUMPDEST PUSH1 0x0 PUSH2 0x54E PUSH2 0x549 DUP5 PUSH2 0x4FB JUMP JUMPDEST PUSH2 0x4E0 JUMP JUMPDEST SWAP1 POP DUP3 DUP2 MSTORE PUSH1 0x20 DUP2 ADD DUP5 DUP5 DUP5 ADD GT ISZERO PUSH2 0x56A JUMPI PUSH2 0x569 PUSH2 0x46A JUMP JUMPDEST JUMPDEST PUSH2 0x575 DUP5 DUP3 DUP6 PUSH2 0x52C JUMP JUMPDEST POP SWAP4 SWAP3 POP POP POP JUMP JUMPDEST PUSH1 0x0 DUP3 PUSH1 0x1F DUP4 ADD SLT PUSH2 0x592 JUMPI PUSH2 0x591 PUSH2 0x465 JUMP JUMPDEST JUMPDEST DUP2 CALLDATALOAD PUSH2 0x5A2 DUP5 DUP3 PUSH1 0x20 DUP7 ADD PUSH2 0x53B JUMP JUMPDEST SWAP2 POP POP SWAP3 SWAP2 POP POP JUMP JUMPDEST PUSH1 0x0 DUP2 SWAP1 POP SWAP2 SWAP1 POP JUMP JUMPDEST PUSH2 0x5BE DUP2 PUSH2 0x5AB JUMP JUMPDEST DUP2 EQ PUSH2 0x5C9 JUMPI PUSH1 0x0 DUP1 REVERT JUMPDEST POP JUMP JUMPDEST PUSH1 0x0 DUP2 CALLDATALOAD SWAP1 POP PUSH2 0x5DB DUP2 PUSH2 0x5B5 JUMP JUMPDEST SWAP3 SWAP2 POP POP JUMP JUMPDEST PUSH1 0x0 DUP1 PUSH1 0x0 DUP1 PUSH1 0x80 DUP6 DUP8 SUB SLT ISZERO PUSH2 0x5FB JUMPI PUSH2 0x5FA PUSH2 0x45B JUMP JUMPDEST JUMPDEST PUSH1 0x0 DUP6 ADD CALLDATALOAD PUSH8 0xFFFFFFFFFFFFFFFF DUP2 GT ISZERO PUSH2 0x619 JUMPI PUSH2 0x618 PUSH2 0x460 JUMP JUMPDEST JUMPDEST PUSH2 0x625 DUP8 DUP3 DUP9 ADD PUSH2 0x57D JUMP JUMPDEST SWAP5 POP POP PUSH1 0x20 DUP6 ADD CALLDATALOAD PUSH8 0xFFFFFFFFFFFFFFFF DUP2 GT ISZERO PUSH2 0x646 JUMPI PUSH2 0x645 PUSH2 0x460 JUMP JUMPDEST JUMPDEST PUSH2 0x652 DUP8 DUP3 DUP9 ADD PUSH2 0x57D JUMP JUMPDEST SWAP4 POP POP PUSH1 0x40 DUP6 ADD CALLDATALOAD PUSH8 0xFFFFFFFFFFFFFFFF DUP2 GT ISZERO PUSH2 0x673 JUMPI PUSH2 0x672 PUSH2 0x460 JUMP JUMPDEST JUMPDEST PUSH2 0x67F DUP8 DUP3 DUP9 ADD PUSH2 0x57D JUMP JUMPDEST SWAP3 POP POP PUSH1 0x60 PUSH2 0x690 DUP8 DUP3 DUP9 ADD PUSH2 0x5CC JUMP JUMPDEST SWAP2 POP POP SWAP3 SWAP6 SWAP2 SWAP5 POP SWAP3 POP JUMP JUMPDEST PUSH1 0x0 DUP1 PUSH1 0x40 DUP4 DUP6 SUB SLT ISZERO PUSH2 0x6B3 JUMPI PUSH2 0x6B2 PUSH2 0x45B JUMP JUMPDEST JUMPDEST PUSH1 0x0 DUP4 ADD CALLDATALOAD PUSH8 0xFFFFFFFFFFFFFFFF DUP2 GT ISZERO PUSH2 0x6D1 JUMPI PUSH2 0x6D0 PUSH2 0x460 JUMP JUMPDEST JUMPDEST PUSH2 0x6DD DUP6 DUP3 DUP7 ADD PUSH2 0x57D JUMP JUMPDEST SWAP3 POP POP PUSH1 0x20 DUP4 ADD CALLDATALOAD PUSH8 0xFFFFFFFFFFFFFFFF DUP2 GT ISZERO PUSH2 0x6FE JUMPI PUSH2 0x6FD PUSH2 0x460 JUMP JUMPDEST JUMPDEST PUSH2 0x70A DUP6 DUP3 DUP7 ADD PUSH2 0x57D JUMP JUMPDEST SWAP2 POP POP SWAP3 POP SWAP3 SWAP1 POP JUMP JUMPDEST PUSH1 0x0 DUP2 MLOAD SWAP1 POP SWAP2 SWAP1 POP JUMP JUMPDEST PUSH1 0x0 DUP3 DUP3 MSTORE PUSH1 0x20 DUP3 ADD SWAP1 POP SWAP3 SWAP2 POP POP JUMP JUMPDEST PUSH1 0x0 JUMPDEST DUP4 DUP2 LT ISZERO PUSH2 0x74E JUMPI DUP1 DUP3 ADD MLOAD DUP2 DUP5 ADD MSTORE PUSH1 0x20 DUP2 ADD SWAP1 POP PUSH2 0x733 JUMP JUMPDEST PUSH1 0x0 DUP5 DUP5 ADD MSTORE POP POP POP POP JUMP JUMPDEST PUSH1 0x0 PUSH2 0x765 DUP3 PUSH2 0x714 JUMP JUMPDEST PUSH2 0x76F DUP2 DUP6 PUSH2 0x71F JUMP JUMPDEST SWAP4 POP PUSH2 0x77F DUP2 DUP6 PUSH1 0x20 DUP7 ADD PUSH2 0x730 JUMP JUMPDEST PUSH2 0x788 DUP2 PUSH2 0x46F JUMP JUMPDEST DUP5 ADD SWAP2 POP POP SWAP3 SWAP2 POP POP JUMP JUMPDEST PUSH2 0x79C DUP2 PUSH2 0x5AB JUMP JUMPDEST DUP3 MSTORE POP POP JUMP JUMPDEST PUSH1 0x0 PUSH1 0x40 DUP3 ADD SWAP1 POP DUP2 DUP2 SUB PUSH1 0x0 DUP4 ADD MSTORE PUSH2 0x7BC DUP2 DUP6 PUSH2 0x75A JUMP JUMPDEST SWAP1 POP PUSH2 0x7CB PUSH1 0x20 DUP4 ADD DUP5 PUSH2 0x793 JUMP JUMPDEST SWAP4 SWAP3 POP POP POP JUMP JUMPDEST PUSH1 0x0 DUP2 SWAP1 POP SWAP3 SWAP2 POP POP JUMP JUMPDEST PUSH1 0x0 PUSH2 0x7E8 DUP3 PUSH2 0x714 JUMP JUMPDEST PUSH2 0x7F2 DUP2 DUP6 PUSH2 0x7D2 JUMP JUMPDEST SWAP4 POP PUSH2 0x802 DUP2 DUP6 PUSH1 0x20 DUP7 ADD PUSH2 0x730 JUMP JUMPDEST DUP1 DUP5 ADD SWAP2 POP POP SWAP3 SWAP2 POP POP JUMP JUMPDEST PUSH1 0x0 PUSH2 0x81A DUP3 DUP5 PUSH2 0x7DD JUMP JUMPDEST SWAP2 POP DUP2 SWAP1 POP SWAP3 SWAP2 POP POP JUMP JUMPDEST PUSH32 0x696420697320616C726561647920726567697374657265640000000000000000 PUSH1 0x0 DUP3 ADD MSTORE POP JUMP JUMPDEST PUSH1 0x0 PUSH2 0x85B PUSH1 0x18 DUP4 PUSH2 0x71F JUMP JUMPDEST SWAP2 POP PUSH2 0x866 DUP3 PUSH2 0x825 JUMP JUMPDEST PUSH1 0x20 DUP3 ADD SWAP1 POP SWAP2 SWAP1 POP JUMP JUMPDEST PUSH1 0x0 PUSH1 0x20 DUP3 ADD SWAP1 POP DUP2 DUP2 SUB PUSH1 0x0 DUP4 ADD MSTORE PUSH2 0x88A DUP2 PUSH2 0x84E JUMP JUMPDEST SWAP1 POP SWAP2 SWAP1 POP JUMP JUMPDEST PUSH32 0x4E487B7100000000000000000000000000000000000000000000000000000000 PUSH1 0x0 MSTORE PUSH1 0x22 PUSH1 0x4 MSTORE PUSH1 0x24 PUSH1 0x0 REVERT JUMPDEST PUSH1 0x0 PUSH1 0x2 DUP3 DIV SWAP1 POP PUSH1 0x1 DUP3 AND DUP1 PUSH2 0x8D8 JUMPI PUSH1 0x7F DUP3 AND SWAP2 POP JUMPDEST PUSH1 0x20 DUP3 LT DUP2 SUB PUSH2 0x8EB JUMPI PUSH2 0x8EA PUSH2 0x891 JUMP JUMPDEST JUMPDEST POP SWAP2 SWAP1 POP JUMP JUMPDEST PUSH1 0x0 DUP2 SWAP1 POP DUP2 PUSH1 0x0 MSTORE PUSH1 0x20 PUSH1 0x0 KECCAK256 SWAP1 POP SWAP2 SWAP1 POP JUMP JUMPDEST PUSH1 0x0 PUSH1 0x20 PUSH1 0x1F DUP4 ADD DIV SWAP1 POP SWAP2 SWAP1 POP JUMP JUMPDEST PUSH1 0x0 DUP3 DUP3 SHL SWAP1 POP SWAP3 SWAP2 POP POP JUMP JUMPDEST PUSH1 0x0 PUSH1 0x8 DUP4 MUL PUSH2 0x953 PUSH32 0xFFFFFFFFFFFFFFFFFFFFFFFFFFFFFFFFFFFFFFFFFFFFFFFFFFFFFFFFFFFFFFFF DUP3 PUSH2 0x916 JUMP JUMPDEST PUSH2 0x95D DUP7 DUP4 PUSH2 0x916 JUMP JUMPDEST SWAP6 POP DUP1 NOT DUP5 AND SWAP4 POP DUP1 DUP7 AND DUP5 OR SWAP3 POP POP POP SWAP4 SWAP3 POP POP POP JUMP JUMPDEST PUSH1 0x0 DUP2 SWAP1 POP SWAP2 SWAP1 POP JUMP JUMPDEST PUSH1 0x0 PUSH2 0x99A PUSH2 0x995 PUSH2 0x990 DUP5 PUSH2 0x5AB JUMP JUMPDEST PUSH2 0x975 JUMP JUMPDEST PUSH2 0x5AB JUMP JUMPDEST SWAP1 POP SWAP2 SWAP1 POP JUMP JUMPDEST PUSH1 0x0 DUP2 SWAP1 POP SWAP2 SWAP1 POP JUMP JUMPDEST PUSH2 0x9B4 DUP4 PUSH2 0x97F JUMP JUMPDEST PUSH2 0x9C8 PUSH2 0x9C0 DUP3 PUSH2 0x9A1 JUMP JUMPDEST DUP5 DUP5 SLOAD PUSH2 0x923 JUMP JUMPDEST DUP3 SSTORE POP POP POP POP JUMP JUMPDEST PUSH1 0x0 SWAP1 JUMP JUMPDEST PUSH2 0x9DD PUSH2 0x9D0 JUMP JUMPDEST PUSH2 0x9E8 DUP2 DUP5 DUP5 PUSH2 0x9AB JUMP JUMPDEST POP POP POP JUMP JUMPDEST JUMPDEST DUP2 DUP2 LT ISZERO PUSH2 0xA0C JUMPI PUSH2 0xA01 PUSH1 0x0 DUP3 PUSH2 0x9D5 JUMP JUMPDEST PUSH1 0x1 DUP2 ADD SWAP1 POP PUSH2 0x9EE JUMP JUMPDEST POP POP JUMP JUMPDEST PUSH1 0x1F DUP3 GT ISZERO PUSH2 0xA51 JUMPI PUSH2 0xA22 DUP2 PUSH2 0x8F1 JUMP JUMPDEST PUSH2 0xA2B DUP5 PUSH2 0x906 JUMP JUMPDEST DUP2 ADD PUSH1 0x20 DUP6 LT ISZERO PUSH2 0xA3A JUMPI DUP2 SWAP1 POP JUMPDEST PUSH2 0xA4E PUSH2 0xA46 DUP6 PUSH2 0x906 JUMP JUMPDEST DUP4 ADD DUP3 PUSH2 0x9ED JUMP JUMPDEST POP POP JUMPDEST POP POP POP JUMP JUMPDEST PUSH1 0x0 DUP3 DUP3 SHR SWAP1 POP SWAP3 SWAP2 POP POP JUMP JUMPDEST PUSH1 0x0 PUSH2 0xA74 PUSH1 0x0 NOT DUP5 PUSH1 0x8 MUL PUSH2 0xA56 JUMP JUMPDEST NOT DUP1 DUP4 AND SWAP2 POP POP SWAP3 SWAP2 POP POP JUMP JUMPDEST PUSH1 0x0 PUSH2 0xA8D DUP4 DUP4 PUSH2 0xA63 JUMP JUMPDEST SWAP2 POP DUP3 PUSH1 0x2 MUL DUP3 OR SWAP1 POP SWAP3 SWAP2 POP POP JUMP JUMPDEST PUSH2 0xAA6 DUP3 PUSH2 0x714 JUMP JUMPDEST PUSH8 0xFFFFFFFFFFFFFFFF DUP2 GT ISZERO PUSH2 0xABF JUMPI PUSH2 0xABE PUSH2 0x480 JUMP JUMPDEST JUMPDEST PUSH2 0xAC9 DUP3 SLOAD PUSH2 0x8C0 JUMP JUMPDEST PUSH2 0xAD4 DUP3 DUP3 DUP6 PUSH2 0xA10 JUMP JUMPDEST PUSH1 0x0 PUSH1 0x20 SWAP1 POP PUSH1 0x1F DUP4 GT PUSH1 0x1 DUP2 EQ PUSH2 0xB07 JUMPI PUSH1 0x0 DUP5 ISZERO PUSH2 0xAF5 JUMPI DUP3 DUP8 ADD MLOAD SWAP1 POP JUMPDEST PUSH2 0xAFF DUP6 DUP3 PUSH2 0xA81 JUMP JUMPDEST DUP7 SSTORE POP PUSH2 0xB67 JUMP JUMPDEST PUSH1 0x1F NOT DUP5 AND PUSH2 0xB15 DUP7 PUSH2 0x8F1 JUMP JUMPDEST PUSH1 0x0 JUMPDEST DUP3 DUP2 LT ISZERO PUSH2 0xB3D JUMPI DUP5 DUP10 ADD MLOAD DUP3 SSTORE PUSH1 0x1 DUP3 ADD SWAP2 POP PUSH1 0x20 DUP6 ADD SWAP5 POP PUSH1 0x20 DUP2 ADD SWAP1 POP PUSH2 0xB18 JUMP JUMPDEST DUP7 DUP4 LT ISZERO PUSH2 0xB5A JUMPI DUP5 DUP10 ADD MLOAD PUSH2 0xB56 PUSH1 0x1F DUP10 AND DUP3 PUSH2 0xA63 JUMP JUMPDEST DUP4 SSTORE POP JUMPDEST PUSH1 0x1 PUSH1 0x2 DUP9 MUL ADD DUP9 SSTORE POP POP POP JUMPDEST POP POP POP POP POP POP JUMP JUMPDEST PUSH32 0x6E6F207265676973746572656400000000000000000000000000000000000000 PUSH1 0x0 DUP3 ADD MSTORE POP JUMP JUMPDEST PUSH1 0x0 PUSH2 0xBA5 PUSH1 0xD DUP4 PUSH2 0x71F JUMP JUMPDEST SWAP2 POP PUSH2 0xBB0 DUP3 PUSH2 0xB6F JUMP JUMPDEST PUSH1 0x20 DUP3 ADD SWAP1 POP SWAP2 SWAP1 POP JUMP JUMPDEST PUSH1 0x0 PUSH1 0x20 DUP3 ADD SWAP1 POP DUP2 DUP2 SUB PUSH1 0x0 DUP4 ADD MSTORE PUSH2 0xBD4 DUP2 PUSH2 0xB98 JUMP JUMPDEST SWAP1 POP SWAP2 SWAP1 POP JUMP JUMPDEST PUSH32 0x70617373776F726420696E636F72726563740000000000000000000000000000 PUSH1 0x0 DUP3 ADD MSTORE POP JUMP JUMPDEST PUSH1 0x0 PUSH2 0xC11 PUSH1 0x12 DUP4 PUSH2 0x71F JUMP JUMPDEST SWAP2 POP PUSH2 0xC1C DUP3 PUSH2 0xBDB JUMP JUMPDEST PUSH1 0x20 DUP3 ADD SWAP1 POP SWAP2 SWAP1 POP JUMP JUMPDEST PUSH1 0x0 PUSH1 0x20 DUP3 ADD SWAP1 POP DUP2 DUP2 SUB PUSH1 0x0 DUP4 ADD MSTORE PUSH2 0xC40 DUP2 PUSH2 0xC04 JUMP JUMPDEST SWAP1 POP SWAP2 SWAP1 POP JUMP INVALID LOG2 PUSH5 0x6970667358 0x22 SLT KECCAK256 JUMP CHAINID PUSH8 0x1F905A3E874861DC PUSH17 0x59C12C38B661E0C84F6D24BDE7CB331267 SLT 0xCA STOP PUSH5 0x736F6C6343 STOP ADDMOD GT STOP CALLER "},"methodIdentifiers":{"login(string,string)":"58467dbc","register(string,string,string,uint256)":"02110d25","withdraw(string,string)":"20b2e7bf"}}}}}